:100000000C94C0010C94E8010C94E8010C94E801F4
:100010000C94E8010C94E8010C94E8010C94E801BC
:100020000C94E8010C94E8010C94B7100C9437116F
:100030000C94E8010C94E8010C94E8010C94E8019C
:100040000C94E8010C94E8010C94E8010C94E8018C
:100050000C94E8010C94E8010C94E8010C94C60798
:100060000C94E8010C949A140C9474140C94E80108
:100070000C94E8010C94E8010C94E8010C94E8015C
:100080000C94E8010C94E8010C94E8010C94E8014C
:100090000C94E8010C94E8010C94E8010C94E8013C
:1000A0000C94E8010C94E8010C94E80179027C02BC
:1000B0006B026F0275029D029D029D028002840206
:1000C00088028E0292029D02980200407A10F35A32
:1000D00000A0724E18090010A5D4E80000E8764888
:1000E000170000E40B54020000CA9A3B000000E134
:1000F000F505000080969800000040420F000000C7
:10010000A08601000000102700000000E8030000A6
:1001100000006400000000000A0000000000010070
:10012000000000002C76D888DC674F0823DFC1DF91
:10013000AE59E1B1B796E5E3E453C63AE651997694
:1001400096E8E6C28426EB898C9B62ED407C6FFCCE
:10015000EFBC9C9F40F2BAA56FA5F490055A2AF710
:100160005C936B6CF9676DC11BFCE0E40D47FEF519
:1001700020E6B500D0ED902E030094357705008081
:10018000841E080000204E0A000000C80C333333E0
:10019000330F986E12831141EF8D2114893BE65580
:1001A00016CFFEE6DB18D1844B381BF77C1D901D63
:1001B000A4BBE424203284725E228100C9F124ECC5
:1001C000A1E53D276572726F723A20696E76616CA7
:1001D0006964206D6F64652000202D3E2048756D98
:1001E00065646164204D696E696D613A2000202D5F
:1001F0003E2048756D65646164204D6178696D616C
:100200003A2000202D3E2048756D656461642041D0
:10021000637475616C3A2000202D3E2054656D702A
:1002200065726174757261204D696E696D613A2005
:1002300000202D3E2054656D706572617475726189
:10024000204D6178696D613A2000202D3E20546573
:100250006D70657261747572612041637475616C53
:100260003A2000302E302E302E30003132372E30F2
:100270002E302E310000000000240027002A002D1F
:1002800000300000000000250028002B002E003167
:1002900000000000002300260029002C002F00048D
:1002A000040404040304050202020204030202021D
:1002B00002060606060606040402020204040408F6
:1002C000020110408040102040804080080204015C
:1002D00080402010020110801020404020000000CB
:1002E0000200090F0000030401000C0000000000E0
:1002F000000000000000000000000000080B0002E9
:1003000002020100090400000102020000052400AD
:100310001001052401010104240206052406000140
:100320000705810310004009040100020A000000D3
:100330000705020240000007058302400000040395
:10034000090412010002EF02014041234180000133
:100350000102030141726475696E6F204C4C4300C9
:1003600041726475696E6F2059756E0072756E2DDD
:100370006272696467650A000A000A0077212C210D
:1003800011241FBECFEFDAE0DEBFCDBF26E0A6EF1F
:10039000B4E001C01D92AF3AB207E1F714E0A0E06B
:1003A000B1E0E6E5F3E502C005900D92A63FB10786
:1003B000D9F711E0CFEBD1E004C02197FE010E94F4
:1003C0006127CE3BD107C9F70E94ED180C949E29F6
:1003D0000C940000FC01538D448D252F30E0842FB8
:1003E00090E0821B930B541710F0CF96089501975D
:1003F0000895FC01918D828D981761F0828DDF0147
:10040000A80FB11D5D968C91928D9F5F9F73928F07
:1004100090E008958FEF9FEF0895FC01918D828DFC
:10042000981731F0828DE80FF11D858D90E00895C9
:100430008FEF9FEF0895FC01918D228D892F90E021
:10044000805C9F4F821B91098F739927089580E0EC
:1004500090E0892B29F00E94750E81110C94000008
:100460000895CF93DF931F92CDB7DEB76983DC0188
:10047000ED91FC910280F381E02D41E050E0BE015E
:100480006F5F7F4F09950F90DF91CF910895FC0129
:100490008485958597FD0BC09FB7F89482E0809383
:1004A000E9008091F2009FBF90E0019608959FB708
:1004B000F89482E08093E9008091F2009FBF90E081
:1004C000089590E0FC013197EF30F105B0F5EA5A5C
:1004D000FF4F0C946127809180008F7703C080913B
:1004E00080008F7D80938000089580918000877FB9
:1004F000F9CF84B58F7702C084B58F7D84BD089510
:10050000809190008F7707C0809190008F7D03C00D
:1005100080919000877F8093900008958091C00023
:100520008F7703C08091C0008F7D8093C0000895B5
:100530008091C200877F8093C2000895CF93DF939C
:10054000282F30E0F901E352FD4F8491F901E25484
:10055000FD4FD491F901E156FD4FC491CC2391F0A8
:1005600081110E946102EC2FF0E0EE0FFF1FEF56A9
:10057000FD4FA591B491EC91ED2381E090E021F441
:1005800080E002C080E090E0DF91CF9108953FB716
:10059000F8948091060590910705A0910805B09107
:1005A000090526B5A89B05C02F3F19F00196A11D8E
:1005B000B11D3FBFBA2FA92F982F8827820F911DF9
:1005C000A11DB11DBC01CD0142E0660F771F881F40
:1005D000991F4A95D1F7089508950895FB0127853D
:1005E000FC012787FB012685FC0126870895FC0175
:1005F000238134812627022E2295207F2025032E59
:10060000322F22952F700226269532272327220F7C
:10061000220F220F20253483238308958F929F92E7
:10062000AF92BF92CF92DF92EF92FF920F931F9300
:10063000CF93DF93CDB7DEB7AC970FB6F894DEBF9C
:100640000FBECDBF4C015A016901CE0101967C015C
:1006500088E2D7011D928A95E9F7D401ED91FC91CA
:100660000084F185E02DA701C4010995009709F0E8
:1006700053C01CA61BA61AA619A6D401ED91FC9185
:100680000284F385E02D9E01275D3F4FAE01455D5D
:100690005F4FB701C40109950097F1F501151105E8
:1006A00039F088E2F701D80101900D928A95E1F7BF
:1006B000A114B10481F08CA5682F782F770F770BE8
:1006C000072E000C880B990B0E942A25F5016083E8
:1006D000718382839383C114D10489F08AA5682F22
:1006E000782F770F770B072E000C880B990B0E9441
:1006F0002A25D6016D937D938D939C9313978BA59B
:100700009CA5009739F429A53AA5232B29F48AE65C
:1007100090E002C080E090E0AC960FB6F894DEBFA7
:100720000FBECDBFDF91CF911F910F91FF90EF9042
:10073000DF90CF90BF90AF909F908F9008958F9251
:100740009F92AF92BF92CF92DF92EF92FF920F9360
:100750001F93CF93DF93EC018B015A016901E8816C
:10076000F9810680F781E02D0995982EE881F981BD
:10077000B801685F7F4F0680F781E02DCE010995B3
:10078000F82EE881F981B801605F7F4F0680F7811C
:10079000E02DCE010995882EE881F981B801685EC7
:1007A0007F4F0680F781E02DCE010995E82EE88184
:1007B000F981B801605E7F4F0680F781E02DCE01A0
:1007C00009959F2D990D980D9E0D891310C02E2D02
:1007D00030E03829F501318320834F2D50E0CA01E4
:1007E0009929F6019183808380E090E002C089E638
:1007F00090E0DF91CF911F910F91FF90EF90DF90EC
:10080000CF90BF90AF909F908F90089540E050E0C0
:1008100080E0A7E0B0E0FB012191BF01FD01E41BF6
:10082000F50B01C0220FEA95EAF7820F4F5F5F4F89
:100830004830510581F70895AF92BF92DF92EF9251
:10084000FF920F931F93CF93DF93D62ECA016AE0D6
:1008500070E00E942B27EB01181619060CF4219664
:1008600000E010E083E2A82EB12CE22EF12C0C1750
:100870001D0764F4F5013197F1F78D2D0E949E025A
:100880008E159F0531F40F5F1F4FF1CF8FEF9FEF54
:1008900002C080E090E0DF91CF911F910F91FF9017
:1008A000EF90DF90BF90AF900895CF92DF92EF92DC
:1008B000FF920F931F93CF93DF93CDB7DEB72897A7
:1008C0000FB6F894DEBF0FBECDBF6A0179011D825D
:1008D0001E821F82188619821A821B821C82DC01EA
:1008E000ED91FC910280F381E02D9E012F5F3F4F3F
:1008F000AE014B5F5F4F09958C01892BB1F4C11498
:10090000D10441F06D817E818F8198850E94EB2614
:10091000F6016083E114F10441F069817A818B81F1
:100920009C810E94EB26D7016C93C80128960FB6D4
:10093000F894DEBF0FBECDBFDF91CF911F910F9115
:10094000FF90EF90DF90CF900895FC018785089588
:10095000089580E090E008950E94C81890E00895FE
:100960000C9493180F931F93CF93DF931F92CDB7DF
:10097000DEB78C01FC018485958597FF0EC0CE0102
:1009800001960E949E18019719F4298130E002C057
:100990002FEF3FEFF80135872487F801848595858F
:1009A0000F90DF91CF911F910F910895CF93DF9317
:1009B0001F92CDB7DEB7FC018485958597FD05C0F4
:1009C0002FEF3FEF358724870BC0CE0101960E94A1
:1009D0009E18019719F4898190E002C08FEF9FEF74
:1009E0000F90DF91CF910895EF92FF920F931F9395
:1009F000CF93DF93CDB7DEB728970FB6F894DEBF5D
:100A00000FBECDBF7C018B016BED74E0CE01019672
:100A10004F8358870E94A21062E170E0CE010196D8
:100A20000E94E10ED80112966C91CE0101960E94AF
:100A3000360F6EE2CE0101960E94610FF8016381CC
:100A4000CE0101960E94360F6EE2CE0101960E9401
:100A5000610FD80114966C91CE0101960E94360F59
:100A60006EE2CE0101960E94610FF8016581CE0110
:100A700001960E94360FD701ED91FC9169817A8130
:100A80000088F189E02D4F815885C70109958C01B7
:100A9000CE0101960E943810C80128960FB6F8942E
:100AA000DEBF0FBECDBFDF91CF911F910F91FF90A1
:100AB000EF900895FC01848DDF01A80FB11DA35AAA
:100AC000BF4F2C91848D90E001968F739927848F6E
:100AD000A689B7892C93A089B1898C9180648C9365
:100AE000938D848D981306C00288F389E02D808150
:100AF0008F7D80830895CF93DF93EC01888D8823C9
:100B0000C9F0EA89FB89808185FD05C0A889B9897A
:100B10008C9186FD0FC00FB607FCF5CF808185FF55
:100B2000F2CFA889B9898C9185FFEDCFCE010E94C3
:100B30005A05E7CFDF91CF9108951F93CF93DF93AD
:100B4000282F30E0F901E352FD4F8491F901E2547E
:100B5000FD4FD491F901E156FD4FC491CC23C9F06A
:100B6000162F81110E946102EC2FF0E0EE0FFF1FA3
:100B7000ED57FD4FA591B4918FB7F894111105C0B1
:100B80009C91ED2FE095E92302C0EC91ED2BEC93C5
:100B90008FBFDF91CF911F910895CF93DF93EC0129
:100BA00060E08E810E949D0561E08E810E949D051E
:100BB00060E08E810E949D058BE891E00197F1F73E
:100BC000DF91CF910895CF93DF9390E0FC01E25441
:100BD000FD4F2491FC01E156FD4F8491882361F182
:100BE00090E0880F991FFC01EB58FD4FC591D491FF
:100BF000FC01ED57FD4FA591B491611109C09FB75C
:100C0000F8948881209582238883EC912E230BC051
:100C1000623061F49FB7F8943881822F80958323E6
:100C20008883EC912E2B2C939FBF06C08FB7F8942E
:100C3000E8812E2B28838FBFDF91CF9108958F926B
:100C40009F92AF92BF92CF92DF92EF92FF926B0191
:100C50007C010E94C7024B015C01C114D104E10474
:100C6000F104F1F00E94C702DC01CB018819990957
:100C7000AA09BB09883E9340A105B10570F321E0A4
:100C8000C21AD108E108F10888EE880E83E0981EA8
:100C9000A11CB11CC114D104E104F10419F7DDCF8A
:100CA000FF90EF90DF90CF90BF90AF909F908F908C
:100CB00008958F929F92AF92BF92CF92DF92EF9260
:100CC000FF920F931F93CF93DF935C016B017A0127
:100CD00080910701882309F45BC080919E068823D8
:100CE00009F456C08091F70480FF05C08091E000B0
:100CF00082608093E000E70110E00AEF83E0882E35
:100D00009AE3992E2097D9F10E94C81881110AC040
:100D1000015009F43DC061E070E080E090E00E9485
:100D20001F06F0CF282F30E0C217D3070CF48C2F0A
:100D30004FB7F8948092E9009091E80095FF1DC0AC
:100D4000282F30E0C21BD30BF601982F915020F0D2
:100D500081918093F100FACFC20ED31E112319F0B6
:100D60009092E80009C08091E80085FD06C090924D
:100D7000E80011E0209709F010E04FBFC3CF111138
:100D8000C3CF5D9884E680930A051E141F0444F0C7
:100D900081E090E0F5019383828380E090E001C0E0
:100DA000C701DF91CF911F910F91FF90EF90DF90DE
:100DB000CF90BF90AF909F908F9008958F929F9209
:100DC000AF92BF92CF92DF92EF92FF920F931F9359
:100DD000CF93DF938C01EB017A0188E2DA011D9257
:100DE0008A95E9F761E08C2F0E94E30560E08C2F83
:100DF0000E949D0564E170E080E090E00E941F0683
:100E000061E08C2F0E949D0560E08C2F0E94E3051D
:100E100083E790E00197F1F7D801ED91FC91048010
:100E2000F581E02D20E040E550E0BE01C8010995C4
:100E3000892BB9F5D801ED91FC910480F581E02D65
:100E400021E040E550E0BE01C8010995892B61F51C
:100E50005701B8E2AB0EB11C83E2882E912CD80169
:100E6000ED91FC910480F581E02D20E042E350E01B
:100E7000BE01C8010995892BD1F4C12CD12C8C2F2E
:100E80000E949E020197B1F4C4010197F1F7BFEFF0
:100E9000CB1ADB0AE8E0CE16D10489F787E690E0AA
:100EA00025C084E690E022C085E690E01FC086E67B
:100EB00090E01CC081E0B4E0CB16D1040CF480E0DB
:100EC000F70181937F01EA15FB0549F6D801ED9101
:100ED000FC910480F581E02D20E042E350E0BE016A
:100EE000C8010995009711F088E690E0DF91CF9155
:100EF0001F910F91FF90EF90DF90CF90BF90AF9038
:100F00009F908F9008952FB7F8946091020570918B
:100F1000030580910405909105052FBF08958F92D8
:100F20009F92AF92BF92CF92DF92EF92FF92CF93B8
:100F3000DF93EC016B010E9483074B015C01E12C04
:100F4000F12C8D819E81DC01ED91FC910284F38571
:100F5000E02D099597FF0FC00E948307DC01CB01AC
:100F600088199909AA09BB098C159D05AE05BF050D
:100F700040F38FEF9FEFDF91CF91FF90EF90DF90E5
:100F8000CF90BF90AF909F908F9008951F920F9237
:100F90000FB60F9211242F933F938F939F93AF938C
:100FA000BF938091020590910305A0910405B09133
:100FB00005053091010523E0230F2D3720F401961C
:100FC000A11DB11D05C026E8230F0296A11DB11D6C
:100FD000209301058093020590930305A0930405D7
:100FE000B09305058091060590910705A09108052D
:100FF000B09109050196A11DB11D8093060590933E
:101000000705A0930805B0930905BF91AF919F9183
:101010008F913F912F910F900FBE0F901F901895B9
:10102000CF92DF92EF92FF920F931F93CF93DF93B4
:101030007C016C0187E0C80ED11CC0E0D0E0062F17
:1010400010E0B8010C2E02C0759567950A94E2F77E
:101050006170F60181916F010E949D052196C43057
:10106000D10579F7C701DF91CF911F910F91FF90C3
:10107000EF90DF90CF900C94CD05CF92DF92EF925E
:10108000FF920F931F93CF93DF93EC01F62E642F03
:101090008C810E949D058D818F3F19F060E00E9438
:1010A0009D058F850F2D10E084FF25C06E0187E020
:1010B000C80ED11CE12CF12CB8010E2C02C0759584
:1010C00067950A94E2F76170F60181916F010E94C1
:1010D0009D05FFEFEF1AFF0A88E0E816F10461F7BB
:1010E000CE01DF91CF911F910F91FF90EF90DF9094
:1010F000CF900C94CD05B80184E0759567958A95DD
:10110000E1F7CE010E9410086F2DCE01DF91CF9143
:101110001F910F91FF90EF90DF90CF900C941008EB
:1011200041E00E943D0881E090E0089540E00C9489
:101130003D0861E00E9496088BE39FE10197F1F77B
:101140000895CF93DF93EC018D819E81DC01ED91B9
:10115000FC910084F185E02D09951816190654F4C8
:101160008D819E81DC01ED91FC910284F385E02D5F
:101170000995EACFDF91CF9108952F923F924F9238
:101180005F926F927F928F929F92AF92BF92CF9217
:10119000DF92EF92FF920F931F93CF93DF93CDB720
:1011A000DEB72B970FB6F894DEBF0FBECDBF9B877F
:1011B0008A875B011901FD82EC823A01600E711E83
:1011C000872C7B82912C44244A94542C9B01240F1D
:1011D000351F3F832E839101200F311F39872887C8
:1011E000EA85FB858085981608F036C1AA85BB85FF
:1011F00014965C924E92139715968D919C9116972A
:10120000DC01ED91FC910190F081E02D6FEF0995EB
:101210006FEF8A859B850E94F702EA85FB858581B1
:101220009681DC01ED91FC910190F081E02DAA8581
:10123000BB856C910995EA85FB856081CF010E9491
:10124000F702AA85BB8515968D919C911697DC01B6
:10125000ED91FC910190F081E02D682D09956B8155
:101260008A859B850E94F702EA85FB8585819681A8
:10127000DC01ED91FC910190F081E02D662D099546
:10128000662D8A859B850E94F70275012E813F811C
:10129000E216F306B1F0EA85FB8585819681870128
:1012A000DC01ED91FC910190F081E02DD7016D9171
:1012B0007D010995F80160818A859B850E94F7026E
:1012C000E5CF7101AA85BB8515968D919C911697E6
:1012D00028853985E216F30691F08701DC01ED914E
:1012E000FC910190F081E02DD7016D917D01099570
:1012F000F80160818A859B850E94F702E3CFDC01BB
:10130000ED91FC91AA85BB8514966C910190F081BA
:10131000E02D0995EA85FB8585819681DC01ED91BB
:10132000FC910190F081E02DAA85BB8513966C910C
:10133000099564E670E08A859B850E948F078F3F40
:10134000910509F07DC0EA85FB85548243826FEFE9
:10135000CF010E94F70265E070E08A859B850E94BC
:101360008F07AA85BB856C91262F30E082179307E3
:1013700009F066C0CD010E94F7026AE070E08A853C
:101380009B850E948F077C0197FD5AC0682F8A8534
:101390009B850E94F7026AE070E08A859B850E9427
:1013A0008F078C0197FD4CC0682F8A859B850E9412
:1013B000F702EA821982E981FA810E0F1F1FE12CE0
:1013C000F12C65E070E08A859B85E016F106A9F0B6
:1013D000EC14FD0491F00E948F0797FD0AC0EC8188
:1013E000FD81EE0DFF1D8083682F8A859B850E94FD
:1013F000F702FFEFEF1AFF0AE4CF0E948F077C018C
:1014000097FD1EC065E070E08A859B850E948F076E
:1014100097FD16C0FE2CEE248E0D9F1DAA85BB8560
:1014200013962D913C9114972817390749F48C9104
:101430008F5F8C93C801C016D10680F4C6010EC020
:10144000939464E670E080E090E00E941F068A8535
:101450009B850E94A108C4CE8FEF9FEF2B960FB6FD
:10146000F894DEBF0FBECDBFDF91CF911F910F91DA
:10147000FF90EF90DF90CF90BF90AF909F908F90B4
:101480007F906F905F904F903F902F900895AF9214
:10149000BF92CF92DF92EF92FF920F931F93CF9361
:1014A000DF93CDB7DEB72A970FB6F894DEBF0FBE35
:1014B000CDBF5C018EE48F83F5018681978198878B
:1014C00089871A8219821C821B821E821D826BE60A
:1014D00072E0CE0101960E94C10FF5018185811154
:1014E00006C063E672E0CE0101960E94C10F0D8135
:1014F0001E8129813A81CC24C394D12CCE010A9635
:101500007C0143E050E0BE01695F7F4FF5018481BB
:1015100095810E94BD0881E09A85913009F080E0B4
:10152000F5018087CE0101960E9438102A960FB6E9
:10153000F894DEBF0FBECDBFDF91CF911F910F9109
:10154000FF90EF90DF90CF90BF90AF900895AF9253
:10155000BF92CF92DF92EF92FF920F931F93CF93A0
:10156000DF9300D0CDB7DEB7FC0187858823B1F0CB
:101570005A019B018CE6898386858A83C12CD12CF4
:10158000E12CF12C8A0142E050E0BE016F5F7F4FF9
:10159000848595850E94BD08C50102C080E090E069
:1015A0000F900F90DF91CF911F910F91FF90EF90CF
:1015B000DF90CF90BF90AF900895CF92DF92EF92DF
:1015C000FF920F931F936801790100E010E020E083
:1015D00030E00E94BD081F910F91FF90EF90DF90C7
:1015E000CF900895EF92FF920F931F93CF93DF93C5
:1015F00000D01F92CDB7DEB7FC012289211118C09F
:101600007C01138A8FE4898380E48B8386858A83B7
:101610009F012C5E3F4F00E410E043E050E0BE012C
:101620006F5F7F4F848595850E94DD0AF701828B6D
:101630000F900F900F90DF91CF911F910F91FF901E
:10164000EF900895CF93DF93EC010E94F20A8A890C
:10165000882331F08B89C80FD11D8C8990E002C09E
:101660008FEF9FEFDF91CF910895CF93DF93EC0140
:101670000E94F20A8A89882359F081508A8B8B89CB
:1016800091E0980F9B8BC80FD11D8C8990E002C010
:101690008FEF9FEFDF91CF910895CF93DF93EC0110
:1016A0000E94F20A8A8990E0DF91CF910895AF926B
:1016B000BF92CF92DF92EF92FF920F931F93CF933F
:1016C000DF93CDB7DEB727970FB6F894DEBF0FBE16
:1016D000CDBF5C019B0183E489835A834B83FB016B
:1016E00001900020E9F731978F01061B170BCC24DE
:1016F000C394D12CCE0107967C0143E050E0BE019B
:101700006F5F7F4FD5011C968D919C911D970E9414
:10171000BD08892BC1F18F81F501868793E69C83F3
:101720008D8301E010E09E012A5F3F4F42E050E0D0
:10173000BE016C5F7F4FD5011C968D919C911D97CA
:101740000E94DD0A8E81882339F061E070E080E03C
:1017500090E00E941F06E5CF81E0F50187870190A8
:10176000F081E02D0688F789E02DC50109958111EA
:101770000DC0D501ED91FC910488F589E02DC501DE
:101780000995F501168680E090E002C081E090E0C6
:1017900027960FB6F894DEBF0FBECDBFDF91CF9175
:1017A0001F910F91FF90EF90DF90CF90BF90AF907F
:1017B0000895EF92FF920F931F93CF93DF9300D082
:1017C0001F92CDB7DEB7DC011F962C911F97222305
:1017D00001F17C01ED91FC910084F185E02D0995EA
:1017E000892BC9F48CE48983F70186858A8301E01B
:1017F00010E09E012D5F3F4F42E050E0BE016F5F61
:101800007F4F848595850E94DD0A81E09B81913020
:1018100019F080E001C081E00F900F900F90DF91F0
:10182000CF911F910F91FF90EF900895EF92FF924B
:101830000F931F93CF93DF9300D01F92CDB7DEB7E6
:10184000FC012089211118C07C01118A8BE4898355
:1018500080E48B8386858A839F012E5E3F4F00E460
:1018600010E043E050E0BE016F5F7F4F84859585B7
:101870000E94DD0AF701808B0F900F900F90DF918F
:10188000CF911F910F91FF90EF900895CF93DF9329
:10189000EC010E94160C8889882331F08989C80FD1
:1018A000D11D8A8990E002C08FEF9FEFDF91CF9129
:1018B0000895CF92DF92EF92FF920F931F93CF93F1
:1018C000DF93EC016A017B0100E010E0888981115F
:1018D00006C0CE010E94160C8889882399F00F5FFC
:1018E0001F4F898991E0980F998BFE01E80FF11D38
:1018F0008289F70181937F0188898150888B0C153B
:101900001D0520F3C801DF91CF911F910F91FF902A
:10191000EF90DF90CF900895CF93DF93EC010E947A
:10192000160C8889882359F08150888B898991E029
:10193000980F998BC80FD11D8A8990E002C08FEF54
:101940009FEFDF91CF910895CF93DF93EC010E9439
:10195000160C888990E0DF91CF9108950F931F9323
:1019600000E010E020E030E00E94DD0A1F910F91BE
:1019700008950F931F93CF93DF9300D0CDB7DEB7B9
:101980008C01FC018189882369F087E7898386853A
:101990008A8342E050E0BE016F5F7F4F848595856A
:1019A0000E94AE0CF801118A0F900F90DF91CF9139
:1019B0001F910F910895CF93DF9300D01F92CDB761
:1019C000DEB729E42983FC0126852A836B8343E063
:1019D00050E0BE016F5F7F4F848595850E94AE0CFD
:1019E00081E090E00F900F900F90DF91CF910895DC
:1019F000CF93DF9300D0CDB7DEB722E629836A8389
:101A000042E050E0BE016F5F7F4FFC018481958111
:101A10000E94AE0C81E090E00F900F90DF91CF918B
:101A20000895CF93DF9300D01F92CDB7DEB7FC01AE
:101A30002785222389F08CE6898386858A836B83B8
:101A400043E050E0BE016F5F7F4F848595850E9423
:101A5000AE0C81E090E002C080E090E00F900F902B
:101A60000F90DF91CF9108950F931F93CF93DF9342
:101A700000D0CDB7DEB78C01FC018785882369F0E3
:101A80008AE6898386858A8342E050E0BE016F5FE3
:101A90007F4F848595850E94AE0CF8011786108AC9
:101AA000118A0F900F90DF91CF911F910F910895A0
:101AB00068EE73E080E090E00E941F0688E596E003
:101AC0000E94990868EE73E080E090E00C941F0695
:101AD000CF93DF93EC01CE010E94F20A8A8988231A
:101AE00039F0CE010E94350B8133A9F780E001C0A7
:101AF00081E0DF91CF910895EF92FF920F931F93B2
:101B0000CF93DF93EC017B018A010E948307AB0135
:101B1000BC012AE08FE095E00E94E5136BEB74E0D6
:101B20008FE095E00E94D013B7018FE095E00E940E
:101B30009E1366EC74E08FE095E00E94D013B8012C
:101B40008FE095E00E949E136FEC74E08FE095E0CB
:101B50000E94D013CE01DF91CF911F910F91FF9082
:101B6000EF900C947F16089540910D0550910E054D
:101B700020910B0530910C0542175307B4F4909156
:101B8000E8009570E1F39091E80092FD19C0809310
:101B9000F10080910D0590910E0501968F739927A4
:101BA000892B19F48EEF8093E80080910D059091B8
:101BB0000E05019690930E0580930D0581E0089522
:101BC00080E00895DF92EF92FF920F931F93CF93DF
:101BD000DF93D82E8A017B01E40EF51EEB01CE15B2
:101BE000DF0571F0D7FE03C0FE01849101C088813A
:101BF0000E94B40D21968111F2CF8FEF9FEF01C0AB
:101C0000C801DF91CF911F910F91FF90EF90DF906E
:101C10000895615030F02091F100FC01208301967D
:101C2000F8CF289884E680939D060895CF92DF929E
:101C3000EF92FF920F931F93CF93DF936C017A0182
:101C40008B01C0E0D0E0CE15DF0589F0D8016D91A1
:101C50008D01D601ED91FC910190F081E02DC6013E
:101C60000995892B11F47E0102C02196ECCFC701A2
:101C7000DF91CF911F910F91FF90EF90DF90CF9068
:101C800008950E9472290F931F93CF93DF931F92A1
:101C9000CDB7DEB782E0898342E450E06CEF72E0BA
:101CA00080E80E94E20D0E94D918DC0112960D9185
:101CB0001C9113970115110569F0D801ED91FC9164
:101CC0000280F381E02DBE016F5F7F4FC80109954F
:101CD00097FF07C089810F90DF91CF911F910F91DE
:101CE0000895F80100851185E5CF81E695E00E9411
:101CF0001B0221E0892B09F420E0822F0895EF9246
:101D0000FF920F931F93CF93DF93EC0181E0888FB5
:101D10009B8D8C8D981305C0E889F989808185FD9C
:101D200024C0F62E0B8D10E00F5F1F4F0F7311278D
:101D3000E02E8C8DE8120CC00FB607FCFACFE889B4
:101D4000F989808185FFF5CFCE010E945A05F1CF38
:101D50008B8DFE01E80FF11DE35AFF4FF0820B8FD0
:101D6000EA89FB898081806207C0EE89FF896083F0
:101D7000E889F98980818064808381E090E0DF9147
:101D8000CF911F910F91FF90EF900895FB01448137
:101D90005581FC01248135812417350778F0808135
:101DA0009181009759F0FB01608171816115710586
:101DB00029F00E94902921E0892B09F020E0822F50
:101DC00008950F931F93CF93DF93EC01888199813E
:101DD000009729F02A813B812617370788F48B0169
:101DE0006F5F7F4F0E94A828009761F099838883D6
:101DF0001B830A832C813D81232B11F4FC0110826B
:101E000081E001C080E0DF91CF911F910F91089593
:101E1000EF92FF920F931F93CF93DF93FC012481E6
:101E200035816115710511F480E019C04115510526
:101E3000A9F07B01EC018A01020F131FB8010E9477
:101E4000E10E882389F3288139818C819D81B70136
:101E5000820F931F0E9489291D830C8381E0DF91EB
:101E6000CF911F910F91FF90EF900895EF92FF9205
:101E70000F931F93CF93DF9300D000D0CDB7DEB781
:101E80007C01862F4AE08E010F5F1F4FB80190E062
:101E90000E948822F80101900020E9F73197AF01F4
:101EA000401B510BB801C7010E94080F0F900F9003
:101EB0000F900F90DF91CF911F910F91FF90EF90B6
:101EC0000895CF93DF9300D0CDB7DEB769831A8230
:101ED00041E050E0BE016F5F7F4F0E94080F0F90FE
:101EE0000F90DF91CF9108956115710551F0FB01BD
:101EF00001900020E9F73197AF01461B570B0C9476
:101F0000080F80E00895CF93DF93EC0188819981D9
:101F1000009711F00E941028198218821D821C82DD
:101F20001B821A82DF91CF910895CF93DF93EC014A
:101F30006115710561F0FB0101900020E9F731970F
:101F4000AF01461B570B0E94080F811103C0CE0141
:101F50000E94830FCE01DF91CF910895CF93DF933D
:101F6000EC01FB0144815581608171810E94080F61
:101F7000811103C0CE010E94830FCE01DF91CF916A
:101F80000895EF92FF920F931F93CF93DF93EC018D
:101F90008B016115710551F0CB010E9474227C0107
:101FA000BC01CE010E94E10E811104C0CE010E944D
:101FB000830F07C0FD82EC82B801888199810E945D
:101FC0006D22CE01DF91CF911F910F91FF90EF9085
:101FD0000895EF92FF920F931F93CF93DF93EC013D
:101FE0007B018A01BA010E94E10E811104C0CE0179
:101FF0000E94830F07C01D830C83B70188819981DC
:102000000E948929CE01DF91CF911F910F91FF90FE
:10201000EF900895CF93DF93EC016115710559F0AE
:10202000FB0101900020E9F73197AF01461B570BE8
:102030000E94E90F02C00E94830FCE01DF91CF9171
:102040000895CF93DF93EC01FB018617970761F0AA
:10205000608171816115710529F0448155810E946B
:10206000E90F02C00E94830FCE01DF91CF91089546
:10207000FC01808191810C941028EF92FF920F93C4
:102080001F93CF93DF93CDB7DEB7A1970FB6F89428
:10209000DEBF0FBECDBF7C01CB01BA01F7011182BB
:1020A0001082138212821582148242E0420F8E0146
:1020B0000F5F1F4F0E944D22BC01C7010E940A10F2
:1020C000A1960FB6F894DEBF0FBECDBFDF91CF91C2
:1020D0001F910F91FF90EF9008950F931F93CF934F
:1020E000DF93CDB7DEB762970FB6F894DEBF0FBEB1
:1020F000CDBF8C01CB01F8011182108213821282B4
:102100001582148250E0BE016F5F7F4F0E947D22D6
:10211000BE016F5F7F4FC8010E940A1062960FB622
:10212000F894DEBF0FBECDBFDF91CF911F910F910D
:102130000895FC011182108213821282158214828A
:102140000C942110FC0111821082138212821582DC
:1021500014826115710551F0FB0101900020E9F72F
:102160003197AF01461B570B0C94E90F08951F924E
:102170000F920FB60F9211242F933F934F935F93BB
:102180006F937F938F939F93AF93BF93CF93EF936F
:10219000FF93C091E1008091E100837F8093E10093
:1021A000C3FF0FC01092E90081E08093EB00109212
:1021B000EC0082E38093ED0010929E0688E080930D
:1021C000F000C2FF18C00E94931880910A0588236E
:1021D00039F080910A05815080930A05882389F19E
:1021E00080919D06882339F080919D0681508093CF
:1021F0009D06882341F1C4FF10C08091E2008E7ECD
:1022000081608093E2008091E1008F7E8093E10005
:102210008091F7048E7E806111C0C0FF16C080914E
:10222000E2008E7E80618093E2008091E1008E7EEC
:102230008093E1008091F7048E7E81608093F704A3
:1022400004C05D9ACDCF289AD6CFFF91EF91CF9160
:10225000BF91AF919F918F917F916F915F914F91BE
:102260003F912F910F900FBE0F901F9018951F92C6
:102270000F920FB60F921124CF92DF92EF92FF923E
:102280000F931F932F933F934F935F936F937F937E
:102290008F939F93AF93BF93EF93FF93CF93DF936E
:1022A000CDB7DEB76C97DEBFCDBF1092E90080914D
:1022B000E80083FFEDC168E0CE0145960E94090E5B
:1022C00082EF8093E8008D8987FF05C09091E80038
:1022D00090FFFCCF03C09EEF9093E800982F90767C
:1022E00009F0C6C09E892F89188D91110CC08038C5
:1022F00029F48091F8048093F10002C01092F1005B
:102300001092F10048C1422F50E0512B913051F40E
:10231000811141C14130510509F03DC18091F8045E
:102320008D7F0BC0933061F4811135C1413051056F
:1023300009F031C18091F80482608093F8042BC1C8
:10234000953041F48091E80080FFFCCF2068209315
:10235000E30021C1963009F05FC0EB8CFC8C109239
:10236000E90010920E0510920D05123091F51092B1
:102370000C0510920B050E94430E99E0BE016F5FA1
:102380007F4FDB01E92F1D92EA95E9F799831A83C4
:1023900091E09E8390EA98879AEF998720910D05A6
:1023A00030910E05275F3F4F3C832B838D83109226
:1023B000E90010920E0510920D05F0920C05E092C6
:1023C0000B0549E050E080E00E94E20D0E94430EC0
:1023D000E2C0F0920C05E0920B050E94D918DC01D6
:1023E0001296ED90FC901397E114F10409F4C0C02B
:1023F000D701ED91FC910480F581E02DBE016B5E6B
:102400007F4FC7010995009719F00CF0C4C0C7C0F1
:10241000F701E084F184E8CF973009F4C0C0983028
:1024200021F481E08093F100B6C0993009F0B3C087
:10243000837009F0B4C0E0E6F1E081E021E036E32A
:102440009081992361F08093E9002093EB009191B2
:102450009093EC003093ED008F5F873089F78EE723
:102460008093EA001092EA008F8980939E0693C0C1
:102470008B8D9C8D1092E90010920E0510920D0527
:1024800090930C0580930B05898D811156C08E8920
:102490009D89913A59F4813209F081C047E050E0BA
:1024A00060E071E080E00E94E20D75C0913209F0B9
:1024B00076C0833289F4888D90E0982F88272F8901
:1024C000822BA0E0B0E080930F0190931001A093C5
:1024D0001101B09312015FC0803269F48091E8006D
:1024E00082FFFCCF67E080E091E00E94090E8BEF55
:1024F0008093E80006C0823209F04DC08F89809336
:1025000007018091F604882319F0EEEFFAE002C08B
:10251000E0E0F8E08091000190910101A0910201BA
:10252000B0910301803B9440A105B10509F07BC047
:102530008091070180FF93C076C00E94D918DC010A
:1025400012960D911C9113970115110541F1D801B7
:10255000ED91FC910190F081E02DBE016B5E7F4F0B
:10256000C8010995811117C0F80100851185ECCFCC
:10257000113009F44EC0133091F48F89882309F487
:1025800045C0823081F440E86BE080E693E00E9431
:102590003A21882321F08EEF8093E80079C081E210
:1025A0008093EB0075C0813029F440E86BE084E54E
:1025B00093E0EDCF833099F70E94D918DC01129691
:1025C000ED90FC9013978E010F5F1F4F6801E1148F
:1025D000F10479F0D701ED91FC910680F781E02DAF
:1025E000B801C7010995080F111DF701E084F184B6
:1025F000EECFD8011C92F60101900020E9F7319747
:10260000BF016C197D0940E0C601C1CF6EE373E0E4
:1026100002C062E473E06115710509F2FB014491A7
:1026200050E080E840CF0FB6F894A8958091600004
:10263000886180936000109260000FBEA895EE3F05
:102640002AE0F20739F08091FE0A9091FF0A918307
:102650008083A1CF1092FF0A1092FE0A9CCFEE3F1A
:102660008AE0F80731F0808191819093FF0A80938E
:10267000FE0A87E797E7918380839BE088E10FB6A6
:10268000F894A895809360000FBE9093600083CF6C
:102690006C960FB6F894DEBF0FBECDBFDF91CF9121
:1026A000FF91EF91BF91AF919F918F917F916F912A
:1026B0005F914F913F912F911F910F91FF90EF905C
:1026C000DF90CF900F900FBE0F901F9018950F9333
:1026D0001F93CF93DF93EC010E948307688779876C
:1026E0008A879B87E881F9810284F385E02DCE01FA
:1026F000099597FF17C00E948307088519852A85C9
:102700003B85DC01CB01801B910BA20BB30B0C8131
:102710001D812E813F8180179107A207B30710F317
:102720008FEF9FEFDF91CF911F910F910895DC0103
:10273000ED91FC910190F081E02D0994DC01ED9187
:10274000FC91DB0114964D915C9115976D917C91F4
:102750000280F381E02D0994EF92FF920F931F9373
:10276000CF93DF938C017B01C0E0D0E0F701EC0F49
:10277000FD1F6491662361F0D801ED91FC910190F9
:10278000F081E02DC8010995892B11F02196EECF3B
:10279000CE01DF91CF911F910F91FF90EF9008959F
:1027A0006115710579F0FB0101900020E9F731977F
:1027B000AF01461B570BDC01ED91FC910280F381C8
:1027C000E02D099480E090E008954F925F926F921F
:1027D0007F92EF92FF920F931F93CF93DF93CDB72A
:1027E000DEB7A1970FB6F894DEBF0FBECDBF7C0158
:1027F000FA01CB0119A2223008F42AE08E010F5D04
:102800001F4F422E512C612C712CBF01A30192014C
:102810000E943F27F901CA01015011096A3014F4DE
:10282000605D01C0695CD8016C93232B242B252BA0
:1028300061F7B801C7010E94D013A1960FB6F894B2
:10284000DEBF0FBECDBFDF91CF911F910F91FF90E3
:10285000EF907F906F905F904F9008958F929F922E
:10286000AF92BF92CF92DF92EF92FF920F931F939E
:10287000CF93DF937C018B016C0182E0C80ED11CE9
:102880004701E5E08E0E911CC0E0D0E0F6014191D9
:102890006F0150E060E070E02AE0C8010E94E5139B
:1028A0005C016EE2C8010E9497138A0D9B1DC80F40
:1028B000D91FC814D90451F7F701458150E060E0F1
:1028C00070E02AE0C8010E94E5138C0F9D1FDF9184
:1028D000CF911F910F91FF90EF90DF90CF90BF901D
:1028E000AF909F908F9008951F920F920FB60F9206
:1028F00011242F933F934F935F936F937F938F9305
:102900009F93AF93BF93EF93FF9381E695E00E946F
:102910005A05FF91EF91BF91AF919F918F917F9158
:102920006F915F914F913F912F910F900FBE0F903C
:102930001F9018951F920F920FB60F9211242F938C
:102940008F939F93EF93FF93E0917105F091720540
:102950008081E0917705F091780582FD12C0908129
:1029600080917A058F5F8F7320917B05821751F0DC
:10297000E0917A05F0E0EF59FA4F958F80937A0550
:1029800001C08081FF91EF919F918F912F910F90C6
:102990000FBE0F901F901895EF92FF920F931F9309
:1029A000CF93DF93EC01623018F08F8588608F87BA
:1029B0006B8B1C8A80E48D8B80E18E8B80E58F8B06
:1029C00061E08C810E94E3058D818F3F19F061E009
:1029D0000E94E30561E08E810E94E3057E0187E0AD
:1029E000E80EF11C00E010E08F8584FD03C084E058
:1029F00090E002C088E090E0081719074CF461E00D
:102A0000F70181917F010E94E3050F5F1F4FECCF1B
:102A10008BE39DE00197F1F760E08C810E949D05BA
:102A200060E08E810E949D058D818F3F19F060E0EE
:102A30000E949D056F8564FD1DC063E0CE010E946C
:102A400010080BE416E4C8010197F1F763E0CE012A
:102A50000E941008C8010197F1F763E0CE010E94BF
:102A6000100883E592E00197F1F762E0CE010E9441
:102A7000100816C06062CE010E9496088BE496E4AE
:102A80000197F1F76F856062CE010E94960883E599
:102A900092E00197F1F76F856062CE010E9496087F
:102AA0006F856062CE010E94960884E0888B6CE09E
:102AB000CE010E949608CE010E94990882E0898B7F
:102AC00066E0CE01DF91CF911F910F91FF90EF90C3
:102AD0000C949608643008F063E090916B066917D7
:102AE00010F06FEF690FE62FF0E0E85AF94F948984
:102AF000682F690F606888E596E00C949608FC01E1
:102B0000A089B18982E08C93A485B5851C92A685A5
:102B1000B78587E08C93108EA489B58986E08C9365
:102B2000A289B3898C9180618C93A289B3898C919D
:102B300088608C93A289B3898C9180688C93028879
:102B4000F389E02D80818F7D80830895DF92EF925D
:102B5000FF920F931F93CF93DF93CDB7DEB72E97DE
:102B60000FB6F894DEBF0FBECDBF80E796E00E949F
:102B7000A10868EE73E080E090E00E941F0680915B
:102B8000750690917606DC01ED91FC910084F1854B
:102B9000E02D09951816190644F385E0F82EEE2469
:102BA000E39492E3D92EE6E6F1E0DE0116968F2D4E
:102BB00001900D928A95E1F7E092780645E050E0A9
:102BC000BE016A5F7F4F80E796E00E94AE0C63E033
:102BD00080917506909176060E9497136AEF70E0D7
:102BE00080E090E00E941F066AE773E0809175061E
:102BF000909176060E94AC136AEF70E080E090E05E
:102C00000E941F0668E773E0809175069091760632
:102C10000E94AC1364EF71E080E090E00E941F0618
:102C20006CE673E080917506909176060E94AC1375
:102C300064EF71E080E090E00E941F0680E796E07C
:102C40000E94A108EBE6F1E0DE0111968F2D0190C4
:102C50000D928A95E1F7D092780604E010E09E018B
:102C6000255F3F4F45E050E0BE016F5F7F4F80E73B
:102C700096E00E94DD0A8F3FBFEF9B0739F468EEB4
:102C800073E080E090E00E941F068DCF2B8521111C
:102C9000FFCF0497E9F42C8530E02053310984E616
:102CA000829FA001839F500D11242D8530E0205379
:102CB00031096AE0629FC001639F900D1124840F67
:102CC000951F2E8530E020533109820F931F02C0DB
:102CD00084E690E0909372068093710682E380937D
:102CE00078062E960FB6F894DEBF0FBECDBFDF91EB
:102CF000CF911F910F91FF90EF90DF900895CF93A8
:102D0000DF93BC018FE095E00E949E13EC0169ED1A
:102D100074E08FE095E00E94D0138C0F9D1FDF912F
:102D2000CF9108954F925F926F927F928F929F9270
:102D3000AF92BF92CF92DF92EF92FF92CF93DF9349
:102D4000EC016A017B019A01AB01C701B6010E9447
:102D50002627882319F06CED74E01AC0460157014C
:102D6000E894B7F82FEF3FEF4FE75FE7C501B401F5
:102D70000E942627811111C02FEF3FEF4FE75FE739
:102D8000C501B4010E94232518163CF460EE74E0DE
:102D9000CE010E94D0137C0185C02FEF3FEF4FE79B
:102DA0005FE4C701B6010E94212718161CF464EEE7
:102DB00074E0EECF2FEF3FEF4FE75FECC701B601B6
:102DC0000E94232587FDF3CF20E030E0A901C70151
:102DD000B6010E94232587FF0AC06DE2CE010E9442
:102DE00097135C01F7FAF094F7F8F09402C0A12C65
:102DF000B12C2AE037ED43EA5BE3C701B6010E943C
:102E00007F262B013C010E94F2266B017C010E946F
:102E100028259B01AC01C301B2010E947E262B0133
:102E20003C012AE0B701A601CE010E94E5137C0116
:102E3000EA0CFB1C6EE2CE010E949713E80EF91E0D
:102E400020E030E040E251E4C301B2010E94892554
:102E50002B013C010E94F2264B01A12CB12C2AE04F
:102E6000B501A401CE010E94E513E80EF91EC501CB
:102E7000B4010E9428259B01AC01C301B2010E944C
:102E80007E2620E030E040E251E40E9489250E9445
:102E9000F226AB0160E070E02AE0CE010E94E5136B
:102EA000E80EF91E69ED74E0CE010E94D0138E0D7C
:102EB0009F1DDF91CF91FF90EF90DF90CF90BF905B
:102EC000AF909F908F907F906F905F904F900895FC
:102ED0000F931F93CF93DF93EC018B016BED74E0A5
:102EE0000E94A210C8010E94671397FD08C08F328C
:102EF000910529F0682FCE010E94610FF3CFCE011A
:102F0000DF91CF911F910F9108950F931F93CF934E
:102F1000DF9300D000D0CDB7DEB787E58B83E4E048
:102F2000F6E086858C8302E010E09E012F5F3F4F24
:102F300042E050E0BE016D5F7F4F848595850E9421
:102F4000DD0A898190E0982F88272A81820F911DC0
:102F50000F900F900F900F90DF91CF911F910F91D5
:102F600008950F931F93CF93DF9300D01F92CDB797
:102F7000DEB782E78983809112068A8301E010E040
:102F80009E012D5F3F4F42E050E0BE016F5F7F4FDB
:102F900080911006909111060E94DD0A81E09B81CC
:102FA000913009F080E00F900F900F90DF91CF915A
:102FB0001F910F910895CF92DF92EF92FF920F939E
:102FC0001F93CF93DF9300D01F92CDB7DEB782E57A
:102FD0008B83E0911306F091140604811581208102
:102FE000318182E0C82ED12CCE0101967C0141E0D6
:102FF00050E0BE016D5F7F4F8091100690911106E9
:103000000E94BD088A8180931206009113061091D8
:1030100014060115110531F0C8010E943810C801CD
:103020000E941028109214061092130689818111B3
:1030300003C081E0809315060F900F900F90DF91F1
:10304000CF911F910F91FF90EF90DF90CF90089557
:103050000F931F93CF93DF938C01C4E0D6E068EE0B
:1030600074E08F8598890E94740FF801448155811E
:10307000608171818F859889DF91CF911F910F9128
:103080000C94080F0F931F93CF93DF9300D000D0C1
:1030900000D0CDB7DEB76AEE74E0CE0101960E9493
:1030A000A21084E096E00E94B90C86E090E00E94B5
:1030B0007B278C01BE016F5F7F4F0E949910109398
:1030C000140600931306CE0101960E94381063EF98
:1030D00074E0CE0101960E94A210CE0101960E94DA
:1030E0002818CE0101960E9438108EEF95E00E94BC
:1030F00028180E94DB170E94B117882339F064E674
:1031000070E080E090E00E941F06F5CF0E948517D6
:1031100026960FB6F894DEBF0FBECDBFDF91CF91DC
:103120001F910F91089583E08093E9008091F20050
:10313000882319F08AE38093E8000895FC018091C8
:103140009E06811103C08FEF9FEF08959FB7F894FB
:1031500082E08093E9002091F20030E0121613061D
:1031600014F421E030E02115310559F0289884E667
:1031700080939D068091F10080838091F2008823E6
:1031800019F09FBFC90108958BE68093E800F9CF3D
:103190002FB7F89483E08093E9009091E800892F9D
:1031A000807295FF04C09091F20080E4891B2FBFCC
:1031B00008958091A30681110DC082E080939F063F
:1031C00084E08093A0061092A2061092A10681E0EE
:1031D0008093A3068FE996E00895CF93DF93CDB750
:1031E000DEB7C251D1400FB6F894DEBF0FBECDBFDF
:1031F000789484B5826084BD84B5816084BD85B5D2
:10320000826085BD85B5816085BD80916E008160DD
:1032100080936E0010928100809181008260809383
:103220008100809181008160809381008091800085
:1032300081608093800080919100826080939100F2
:1032400080919100816080939100809190008160D5
:10325000809390008091C10084608093C100809130
:10326000C10082608093C1008091C1008160809321
:10327000C1008091C30081608093C3008091C00031
:1032800082608093C0008091C20081608093C20000
:1032900080917A00846080937A0080917A008260C5
:1032A00080937A0080917A00816080937A00809187
:1032B0007A00806880937A0010929E061092F8043B
:1032C0001092F7048091D70081608093D70080EA44
:1032D0008093D80089B5806189BD89B5826089BD38
:1032E00009B400FEFDCF61E070E080E090E00E9454
:1032F0001F068091D8008F7C80618093D8008091D8
:10330000E000807F8093E0008091E1008E7E8093DA
:10331000E1008DE08093E200559A209AEEEFFFE7FE
:10332000859194918B3F9C4D19F481E08093F60434
:103330008091790690917A060E947F158091770698
:10334000811105C081E0809377060E94A61562E096
:1033500088E596E00E94CC148091790690917A06D7
:103360000E947F1580917706811105C081E08093CE
:1033700077060E94A6158FEF9FEF90931C05809310
:103380001B0581E0809384068BE796E00E94470A44
:10339000109107016AE070E080E090E00E941F0653
:1033A00011112DC06AEE71E0CE0101960E94A210AB
:1033B00060E083E00E946A15BE016F5F7F4F88E581
:1033C00096E00E949E13CE0101960E94381066EF8F
:1033D00071E0CE0101960E94A21061E081E00E949E
:1033E0006A15BE016F5F7F4F88E596E00E949E13CD
:1033F0000E94580DCE0101960E943810C9CF64E09A
:1034000072E0CE0101960E94A210CE0101960E94A8
:103410007F16CE0101960E9438106EE272E0CE0156
:1034200001960E94A21084E096E00E94B90C86E00A
:1034300090E00E947B278C01BE016F5F7F4F0E944E
:1034400099101093140600931306CE0101960E9462
:10345000381064E372E0CE0101960E94A210CE0102
:1034600001960E942818CE0101960E9438100E94F1
:10347000DB170E94B117882339F064E670E080E022
:1034800090E00E941F06F5CF0E9485176FE372E05F
:10349000CE0101960E94A210CE0101960E947F16D5
:1034A000CE0101960E9438106DE672E08EEF95E035
:1034B0000E940A1066E772E08EEF95E00E94740F9A
:1034C0006CE872E08EEF95E00E94740F0E94421843
:1034D00080910606909107069C838B838091080655
:1034E00090910906A0910A06B0910B068D839E83E8
:1034F000AF83B88780910C0690910D06A0910E06BF
:10350000B0910F0689879A87AB87BC8708E911E0DD
:103510001A83098380911006909111069E878D87EA
:10352000809112068F878091130690911406998BD3
:10353000888B809115068A8B809116068B8B8091E3
:1035400017068C8B80E4E8E1F6E0DE0155960190E9
:103550000D928A95E1F7CE0101960E94680DF82E32
:103560001A830983CE0101960E94B90CF1103BC069
:1035700061EA72E0CE0101960E94A210CE0101968E
:103580000E947F16CE0101960E9438104AE063ED3A
:1035900070E0CE0189559F4F0E946D1069E271E085
:1035A000CE018B5A9F4F0E94A2106CEA72E0CE01AE
:1035B00001960E94A210AE0149555F4FBE016B5AA1
:1035C0007F4FCE0101960E947C0DCE0101960E9494
:1035D0003810CE018B5A9F4F0E943810CE0189556A
:1035E0009F4F0E94381060ED77E080E090E00E94ED
:1035F0001F066DE672E08EEF95E00E940A1066E706
:1036000072E08EEF95E00E94740F68EB72E08EEF2F
:1036100095E00E94740F0E944218809106069091D6
:1036200007069C838B838091080690910906A091E0
:103630000A06B0910B068D839E83AF83B887809175
:103640000C0690910D06A0910E06B0910F06898789
:103650009A87AB87BC8708E911E01A8309838091B8
:103660001006909111069E878D87809112068F8794
:103670008091130690911406998B888B8091150682
:103680008A8B809116068B8B809117068C8B80E439
:10369000E8E1F6E0DE01559601900D928A95E1F79A
:1036A000CE0101960E94680DF82E1A830983CE017F
:1036B00001960E94B90CF1103AC06DE373E0CE019F
:1036C00001960E94A210CE0101960E947F16CE01A3
:1036D00001960E9438104AE060EE70E0CE018955F4
:1036E0009F4F0E946D1069E271E0CE018B5A9F4F8F
:1036F0000E94A2106AE473E0CE0101960E94A2101B
:10370000AE0149555F4FBE016B5A7F4FCE01019606
:103710000E947C0DCE0101960E943810CE018B5A7A
:103720009F4F0E943810CE0189559F4F0CC068E50D
:1037300073E0CE0101960E94A210CE0101960E9474
:103740007F16CE0101960E9438100E94931888EED1
:10375000882E83E0982EA12CB12C96E3E92E91E0DF
:10376000F92E20E7222E26E0322E87EA90E08C0FF9
:103770009D1F4296CF5EDE4F99838883C151D14011
:10378000E5E5F0E0EC0FFD1F72966F01FBE6669633
:10379000FFAF669701E010E09E012F5F3F4F41E0D1
:1037A00050E0BE016B5A7F4F80917F06909180065A
:1037B0000E94DD0A892B29F5C755DF4F198218822F
:1037C000C95AD040C555DF4F88829982AA82BB82F0
:1037D000CB5AD040C955DF4FF982E882C75AD04052
:1037E000CD54DF4F39822882C35BD040CB54DF4FAA
:1037F0001882C55BD040CA54DF4F1882C65BD040E8
:1038000027C08981C755DF4F19821882C95AD04015
:10381000C555DF4F88829982AA82BB82CB5AD0409D
:10382000C955DF4FF982E882C75AD040CD54DF4FE7
:1038300039822882C35BD040CB54DF4F8883C55B7D
:10384000D04044244394CA54DF4F4882C65BD040E2
:10385000C954DF4F1882C75BD040CA54DF4F8881FC
:10386000C65BD040882309F4CCC1C755DF4F88819F
:103870009981C95AD04069969FAF8EAF6997C55557
:10388000DF4F88819981AA81BB81CB5AD0406D9648
:103890008CAF9DAFAEAFBFAF6D97C155DF4F888185
:1038A0009981AA81BB81CF5AD040A1968CAF9DAFA0
:1038B000AEAFBFAFA1976796FFAEEEAE6797CD54A0
:1038C000DF4F88819981C35BD040A3969FAF8EAFB5
:1038D000A397CB54DF4F8881C55BD040A4968FAFB0
:1038E000A49755245394A5965FAEA597C954DF4F6E
:1038F0008881C75BD040A6968FAFA697C854DF4F8C
:103900008881C85BD040A7968FAFA797CF5EDE4F68
:10391000E881F981C151D140D60180E401900D9236
:103920008A95E1F7BE016B5A7F4FCE018B5F9E4FA8
:103930000E946817C75FDE4F88819981C950D140C6
:10394000892B09F454C164E773E0CB5FDE4F8881B3
:103950009981C550D1400E948029892B09F047C127
:1039600069968EAD9FAD69979C838B836D968CAD68
:103970009DADAEADBFAD6D978D839E83AF83B88790
:10398000A1968CAD9DADAEADBFADA19789879A874D
:10399000AB87BC87FA82E982A3968EAD9FADA397D1
:1039A0009E878D87A4968FADA4978F87A5968FADA0
:1039B000A597888BA6968FADA697898BA7968FAD76
:1039C000A7978A8BF601DE01539680E401900D9251
:1039D0008A95E1F76BED74E0CE0181509F4F0E9414
:1039E000A210BE016F5F7F4FCE0187509F4F0E9494
:1039F0006817C150DF4F88819981CF5FD040009711
:103A000049F1C750DF4F68817981C95FD0406115A6
:103A10007105F1F0CF5FDE4F48815981C150D1402F
:103A2000C350DF4F28813981CD5FD0404217530703
:103A300078F00E948929C350DF4F88819981CD5F3A
:103A4000D040CD5FDE4F99838883C350D14032C0D0
:103A50000E941028C750DF4F88819981C95FD040EC
:103A6000C150DF4F99838883CF5FD040C550DF4F6F
:103A700088819981CB5FD040CF5FDE4F9983888367
:103A8000C150D140C350DF4F88819981CD5FD04074
:103A9000CD5FDE4F99838883C350D140C750DF4F3D
:103AA00019821882C95FD040C550DF4F1982188231
:103AB000CB5FD040C350DF4F19821882CD5FD0401A
:103AC000CE0187509F4F0E9438106CE773E0CE0103
:103AD00087509F4F0E94A210BE0167507F4FCE01BA
:103AE00081509F4F0E94C60E182FCE0187509F4FC6
:103AF0000E943810112319F16AE472E0CE01019698
:103B00000E94AC134091FD045091FE046091FF04AB
:103B100070910005CE0101960E94921661E372E059
:103B2000CE0101960E94AC1340E050E060E371E4E6
:103B3000CE0101960E94921668E172E039C068E8F1
:103B400073E0CE0187509F4F0E94A210BE016750C4
:103B50007F4FCE0181509F4F0E94C60E182FCE017D
:103B600087509F4F0E943810112379F163E072E073
:103B7000CE0101960E94AC134091F9045091FA04D1
:103B80006091FB047091FC04CE0101960E94921694
:103B90006EEE71E0CE0101960E94AC1340E050E061
:103BA00060EA71E4CE0101960E94921669ED71E01F
:103BB000CE0101960E94AC1340E050E060E271E457
:103BC000CE0101960E9492160DC064EC71E0CE0108
:103BD00001960E94AC13BE0161507F4FCE01019649
:103BE0000E949E13CE0181509F4F0E943810CE013B
:103BF0008B5F9E4F0E943810CE0189559F4F0E94C7
:103C0000340D0E94830700910B0110910C0120914B
:103C10000D0130910E012B013C01401A510A620A3C
:103C2000730A40ED441647E054066104710408F439
:103C300010C360930B0170930C0180930D0190935E
:103C40000E01C45FDE4F1882CC50D140C55FDE4FFD
:103C50001882CB50D14000E010E09E01255F3E4F1E
:103C6000AE01445F5E4F67E070E089E091E00E9442
:103C70005504182F882309F492C060E973E0CE013F
:103C800001960E94A21060E080E00E946A15BE01C9
:103C90006F5F7F4F88E596E00E949E13CE010196EC
:103CA0000E9438106FE973E0CE0101960E94A210C5
:103CB00061E081E00E946A15BE016F5F7F4F88E579
:103CC00096E00E949E130E94580DCE0101960E941C
:103CD00038104AE066E970E0CE018B5A9F4F0E948F
:103CE0006D1062E571E0CE0189559F4F0E94A210D0
:103CF000C750DF4F19821882C95FD040C550DF4FCF
:103D000019821882CB5FD040C350DF4F19821882CE
:103D1000CD5FD0404AE0BE016F5F7F4F812F90E0C2
:103D20000E949322BE016F5F7F4FCE0187509F4F4D
:103D30000E940A106DEA73E0CE0181509F4F0E94ED
:103D4000A210BE0167507F4FCE0181509F4F0E944D
:103D5000AE0FBC01CE0101960E949910AE014B5AE4
:103D60005F4FBE0169557F4FCE0101960E947C0DC9
:103D7000CE0101960E943810CE0181509F4F0E94C3
:103D80003810CE0187509F4F0E943810CE018955C0
:103D90009F4F0E943810CE018B5A9F4F58C2C45F6C
:103DA000DE4F1881CC50D140143608F0F4C1C55F05
:103DB000DE4F6881CB50D140643608F0ECC170E032
:103DC00080E090E00E942825C35FDE4F68837983FE
:103DD0008A839B83CD50D140612F70E080E090E0DA
:103DE0000E9428252B013C0180910801882381F045
:103DF00064ED73E0CE0101960E94A210CE010196FF
:103E00000E947F16CE0101960E9438101092080180
:103E10006DE672E08EEF95E00E940A1066E772E0B0
:103E20008EEF95E00E94740F22E0C35FDE4F488161
:103E300059816A817B81CD50D140CE0101960E948B
:103E40003D1022E0B301A201CE018B5A9F4F0E9488
:103E50003D106DE174E0CE0189559F4F0E94A21084
:103E6000BE016B5A7F4FCE0189559F4F0E94AE0F06
:103E700060E674E00E94950FBE016F5F7F4F0E9465
:103E8000AE0F69E373E00E94950FFC0144815581F8
:103E9000608171818EEF95E00E94080FCE018955F7
:103EA0009F4F0E943810CE018B5A9F4F0E943810AE
:103EB000CE0101960E94381063E674E08EEF95E023
:103EC0000E94740F0E94421822E0C35FDE4F4881B7
:103ED00059816A817B81CD50D140CE0101960E94EB
:103EE0003D106DE674E0CE018B5A9F4F0E94A210E8
:103EF000BE016F5F7F4FCE018B5A9F4F0E94AE0F66
:103F0000BC01CE018B5F9E4F0E949910CE018B5A4F
:103F10009F4F0E943810CE0101960E94381022E077
:103F2000B301A201CE0101960E943D1066E774E044
:103F3000CE018B5A9F4F0E94A210BE016F5F7F4F30
:103F4000CE018B5A9F4F0E94AE0FBC01CE01815013
:103F50009F4F0E949910CE018B5A9F4F0E9438109C
:103F6000CE0101960E943810BE016B5F7E4FCE01DC
:103F700089559F4F0E949910BE0161507F4FCE011D
:103F800087509F4F0E94991064E772E0CE0101961E
:103F90000E94A210BE0167507F4FCE0101960E9481
:103FA000AE0FBC01CE0187509F4F0E942110CE0161
:103FB00001960E943810BE0167507F4FCE018B5A88
:103FC0009F4F0E9499106FEDCE018B5A9F4F0E9418
:103FD000610F811105C0CE018B5A9F4F0E94830F44
:103FE00061E874E0CE018B5A9F4F0E94950FBC018F
:103FF000CE0101960E94991060E080E00E946A154F
:10400000BE016F5F7F4F88E596E00E949E13CE0150
:1040100001960E943810CE018B5A9F4F0E94381093
:10402000BE0167507F4FCE018B5A9F4F0E9499105F
:104030006EE774E0CE018B5A9F4F0E94950FBC0132
:10404000CE0101960E949910CE0101960E947F1622
:10405000CE0101960E943810CE018B5A9F4F0E94CC
:104060003810BE0169557F4FCE018B5A9F4F0E9479
:10407000991063E874E0CE018B5A9F4F0E94950F10
:10408000BC01CE0101960E94991061E080E00E947F
:104090006A15BE016F5F7F4F88E596E00E949E1310
:1040A000CE0101960E943810CE018B5A9F4F0E947C
:1040B0003810BE0169557F4FCE018B5A9F4F0E9429
:1040C000991063E874E0CE018B5A9F4F0E94950FC0
:1040D000BC01CE0101960E949910CE0101960E946A
:1040E0007F16CE0101960E943810CE018B5A9F4F49
:1040F0000E94381068EB7BE080E090E00E941F0691
:10410000CE0187509F4F0E943810CE0189559F4F96
:104110000E9438106BED74E0CE0101960E94A2104F
:10412000CE0101960E947F16CE0101960E943810A2
:104130000E949318CE0181509F4F0E943810CE01EB
:104140008B5F9E4F0E9438100E949318C45FDE4F11
:104150006881CC50D14070E080E090E00E9428253A
:104160006093FD047093FE048093FF049093000518
:10417000C55FDE4F6881CB50D14070E080E090E0B9
:104180000E9428256093F9047093FA048093FB043D
:104190009093FC045EC04AE065EA70E0CE010196AF
:1041A0000E946D1062E571E0CE018B5A9F4F0E9414
:1041B000A21065E874E0CE0189559F4F0E94A210BD
:1041C000AE014F5F5F4FBE016B5A7F4FCE018955E5
:1041D0009F4F0E947C0DCE0189559F4F0E94381041
:1041E000CE018B5A9F4F0E943810CE0101960E943B
:1041F000381062EA74E0CE0101960E94A21088E5B0
:1042000096E00E94990860E080E00E946A15BE0175
:104210006F5F7F4F88E596E00E949E13CE01019666
:104220000E94381062EB74E0CE0101960E94A21049
:1042300061E084E00E946A15BE016F5F7F4F88E5F0
:1042400096E00E949E130E94580DCE0101960E9496
:1042500038100E9427029ACA8EEF95E00E9438100B
:1042600088E991E0909305068093040684E096E047
:104270000C94B90CCF92DF92EF92FF920F931F93A1
:10428000CF93DF931F92CDB7DEB7182F062FE42E02
:10429000862F880F8E5F99830E94B40D83E00E9461
:1042A000B40DF12EC12E9981D92E8C2D8F19801726
:1042B00098F4F601E7FE02C0849101C080810E945B
:1042C000B40D182F80E00E94B40D8123FFEFCF1AA8
:1042D000DF0A8111EACF01C081E00F90DF91CF9119
:1042E0001F910F91FF90EF90DF90CF900895CF92A4
:1042F000DF92EF92FF92CF93DF93EBE8F6E082EE4E
:1043000091E0918380831282138214821582E1E608
:10431000F5E01382128228EEC22E23E0D22EE12C89
:10432000F12CC482D582E682F78224E731E0318322
:1043300020832DEC30E0358724872CEC30E0378764
:10434000268728EC30E0318B208B29EC30E0338B52
:10435000228B2AEC30E0358B248B2EEC30E0378B2F
:10436000268B118E128E138E148EAFE0B5E013964D
:104370001C921E9212971496CD92DD92ED92FC92B1
:10438000179726E831E011963C932E932FEF3FEFDD
:104390001D963C932E931C97C0E7D6E0D093600502
:1043A000C0935F05A1E9B6E011969C938E93129697
:1043B0001C92129713961C92139714961C921497A2
:1043C00015961C92A7E9B6E011969C938E931296CF
:1043D0001C92129713961C92139714961C92149782
:1043E00015961C921882FE83ED831F821886FA8729
:1043F000E987E5E8F6E091838083128213821482D4
:104400001582EBE7F6E01382128288EC91E091834B
:104410008083D583C48383EB95E19783868310865D
:104420001186E8E5F6E0138212828CEB91E091832D
:1044300080838CE084838FEF85838BE0868385E0A7
:10444000878384E0808783E0818782E08287138688
:10445000148615861686178661E0CF010E94CC145B
:10446000E4E0F6E013821282C482D582E682F7820B
:1044700088E991E091838083D587C487118A128A65
:10448000138A6BED74E08EEF95E0DF91CF91FF9092
:10449000EF90DF90CF900C94A210EF920F931F93A8
:1044A000CF93DF93E80147FD02C034E001C034E15F
:1044B000E42F440FFF0BF7FF03C0F195E195F109DD
:1044C000E32E022F2E2FAE010E94AD22CE01DF91EE
:1044D000CF911F910F91EF900895FB01DC010590A2
:1044E0000D920020E1F70895FC0105900020E9F706
:1044F000809590958E0F9F1F08954532510520F4A9
:10450000423010F00C948822FB011082CB010895F8
:10451000BB274A3031F4992322F4BDE2909581956E
:104520009F4F0C949422BB27FB015527AA27880F85
:10453000991FAA1FA41710F0A41B83955051B9F717
:10454000A05DAA3308F0A95DA193009779F7B11196
:10455000B1931192CB010C9413254F925F926F92FD
:104560007F929F92AF92BF92CF92DF92EF92FF9293
:104570000F931F93CF93DF93CDB7DEB729970FB675
:10458000F894DEBF0FBECDBF6A01122FB02E2BE311
:10459000201720F0FF24F394F00E02C0BCE3FB2EA2
:1045A0000F2D27E0AE014F5F5F4F0E943B24AC010F
:1045B0008981982F9970913031F0E1FC06C0E0FEBE
:1045C00006C090E205C09DE203C09BE201C090E0FE
:1045D000EE2DE07183FF3CC0911102C083E001C069
:1045E00084E0811718F4212F281B01C020E0E1117D
:1045F0000BC0F601822F30E2882319F031938150ED
:10460000FBCFC20ED11C20E0992329F0D6019C9348
:10461000F60131966F01C6010396E2FE0AC03EE440
:10462000D6013C9341E411964C93119712963C931A
:1046300006C03EE6F601308341E641833283FC0149
:10464000322F40E2332309F442C041933150FACF74
:1046500082FF44C0911102C083E001C084E0811751
:1046600018F4212F281B01C020E0E1110BC0F60136
:10467000822F30E2882319F031938150FBCFC20E94
:10468000D11C20E0992329F0D6019C93F6013196A4
:104690006F01C6010396E2FE0BC039E4D6013C93DC
:1046A0003EE411963C93119736E412963C9307C072
:1046B00039E6F60130833EE6318336E63283FC018B
:1046C000322F40E2332319F041933150FBCFFC01EC
:1046D000E20FF11D10828EEF9FEFB7C0F1E0911154
:1046E00001C0F0E06F2F70E01416150624F49A0153
:1046F0002F5F3F4F02C021E030E0260F371FBB2065
:1047000029F06B2D70E06F5F7F4F02C060E070E0BA
:10471000260F371F612F70E0261737071CF4121B76
:10472000212F01C020E03E2D387159F4D601322FDF
:1047300060E2332319F06D933150FBCFC20ED11CD0
:1047400020E0FF2331F0D6019C93B6016F5F7F4FCD
:104750006B01E1110BC0F601922F30E3992319F0A0
:1047600031939150FBCFC20ED11C20E09F2D940FAE
:104770003A81782F7071A72E84FF03C0313309F47A
:104780009150191624F4993018F098E001C091E086
:10479000E42F852F57FF02C0E0E080E06E2F782FD6
:1047A000E0E0F0E0AEE29A2E3A01691A71082A01BF
:1047B000461A570A0B2D10E01195019511096F3F0C
:1047C0008FEF780729F4D6019C92C60101966C01FF
:1047D0004617570784F0661677066CF47F01E40CE1
:1047E000F51CA1E0B0E0AC0FBD1FEA0EFB1ED70127
:1047F0001196BC9002C090E3B92E615071093196B8
:10480000C60101967C016017710724F0D601BC92A5
:104810006C01D5CF6417750741F4363320F4353376
:1048200021F4A11002C081E3B82EF601B082F70195
:10483000822F90E2882319F091938150FBCFF701EA
:10484000E20FF11D108280E090E029960FB6F894F7
:10485000DEBF0FBECDBFDF91CF911F910F91FF90B3
:10486000EF90DF90CF90BF90AF909F907F906F9030
:104870005F904F900895283008F027E03327DA0141
:10488000990F311D87FD916000966105710539F41E
:1048900032602E5F3D9330E32A95E1F708959F3F04
:1048A00030F080387105610509F03C5F3C5F3D9355
:1048B000913008F08068911DDF93CF931F930F9381
:1048C000FF92EF92192F987F9695E92F96959695DE
:1048D000E90FFF27EC5DFE4F99273327EE24FF24D5
:1048E000A701E70105900894079428F4360FE71E06
:1048F000F81E491F511D660F771F881F991F0694C8
:10490000A1F70590079428F4E70EF81E491F561FDB
:10491000C11D770F881F991F661F0694A1F7059088
:10492000079428F4F80E491F561FC71FD11D880F82
:10493000991F661F771F0694A1F70590079420F42E
:10494000490F561FC71FD81F990F661F771F881F53
:104950000694A9F784911095177041F0D695C795E4
:1049600057954795F794E7941A95C1F7EAECF0E06C
:1049700068941590159135916591959105907FE218
:104980007395E118F10A430B560BC90BD009C0F718
:10499000E10CF11E431F561FC91FD01D7EF470335A
:1049A00011F48A95E6CFE894015030F0080F0AF42C
:1049B0000027021708F4202F2395022F7A3328F0BE
:1049C00079E37D932A95E9F710C07D932A9589F6BE
:1049D000069497956795379517951794E118F10AFE
:1049E000430B560BC90BD00998F023957E91739514
:1049F0007A3308F070E37C932013B8F77E917061EE
:104A00007D9330F0839571E37D9370E32A95E1F710
:104A10001124EF90FF900F911F91CF91DF91992773
:104A200087FD90950895DC01FC01672F7191772334
:104A3000E1F7329704C07C916D9370836291AE1759
:104A4000BF07C8F308950E94652508F481E0089522
:104A5000E89409C097FB3EF4909580957095619518
:104A60007F4F8F4F9F4F9923A9F0F92F96E9BB27CE
:104A70009395F695879577956795B795F111F8CF4A
:104A8000FAF4BB0F11F460FF1BC06F5F7F4F8F4FB5
:104A90009F4F16C0882311F096E911C0772321F0AB
:104AA0009EE8872F762F05C0662371F096E8862F43
:104AB00070E060E02AF09A95660F771F881FDAF79A
:104AC000880F9695879597F90895990F0008550FC7
:104AD000AA0BE0E8FEEF16161706E807F907C0F084
:104AE00012161306E407F50798F0621B730B840B8C
:104AF000950B39F40A2661F0232B242B252B21F466
:104B000008950A2609F4A140A6958FEF811D811D05
:104B100008950E949C250C940D260E94FF2538F0D4
:104B20000E94062620F0952311F00C94F6250C9493
:104B3000FC2511240C9441260E941E2670F3959F9B
:104B4000C1F3950F50E0551F629FF001729FBB2784
:104B5000F00DB11D639FAA27F00DB11DAA1F649F20
:104B60006627B00DA11D661F829F2227B00DA11DD3
:104B7000621F739FB00DA11D621F839FA00D611D59
:104B8000221F749F3327A00D611D231F849F600D7A
:104B9000211D822F762F6A2F11249F5750409AF0A3
:104BA000F1F088234AF0EE0FFF1FBB1F661F771F2F
:104BB000881F91505040A9F79E3F510580F00C94FA
:104BC000F6250C9441265F3FE4F3983ED4F3869596
:104BD00077956795B795F795E7959F5FC1F7FE2B9A
:104BE000880F911D9695879597F9089597F99F6776
:104BF00080E870E060E008959FEF80EC0895002465
:104C00000A941616170618060906089500240A9431
:104C100012161306140605060895092E0394000CB7
:104C200011F4882352F0BB0F40F4BF2B11F460FF46
:104C300004C06F5F7F4F8F4F9F4F089557FD90586F
:104C4000440F551F59F05F3F71F04795880F97FB50
:104C5000991F61F09F3F79F087950895121613060A
:104C60001406551FF2CF4695F1DF08C01616170639
:104C70001806991FF1CF869571056105089408956E
:104C8000E894BB2766277727CB0197F908952F92E1
:104C90003F924F925F926F927F928F929F92AF92CC
:104CA000BF92CF92DF92EF92FF920F931F93CF9319
:104CB000DF93CDB7DEB7CA1BDB0B0FB6F894DEBFB0
:104CC0000FBECDBF09942A88398848885F846E84D6
:104CD0007D848C849B84AA84B984C884DF80EE8020
:104CE000FD800C811B81AA81B981CE0FD11D0FB629
:104CF000F894DEBF0FBECDBFED0108955058BB271D
:104D0000AA270E9496260C940D260E94FF2538F0B3
:104D10000E94062620F039F49F3F19F426F40C94E3
:104D2000FC250EF4E095E7FB0C94F625E92F0E9494
:104D30001E2658F3BA17620773078407950720F0F9
:104D400079F4A6F50C9440260EF4E0950B2EBA2FBC
:104D5000A02D0B01B90190010C01CA01A001112481
:104D6000FF27591B99F0593F50F4503E68F11A162D
:104D7000F040A22F232F342F4427585FF3CF4695BE
:104D800037952795A795F0405395C9F77EF41F16E0
:104D9000BA0B620B730B840BBAF09150A1F0FF0FAA
:104DA000BB1F661F771F881FC2F70EC0BA0F621F96
:104DB000731F841F48F4879577956795B795F79586
:104DC0009E3F08F0B0CF9395880F08F09927EE0F1B
:104DD0009795879508950E94F2266894B1110C94D6
:104DE000412608950E94262688F09F5798F0B92FF3
:104DF0009927B751B0F0E1F0660F771F881F991F10
:104E00001AF0BA95C9F714C0B13091F00E9440264B
:104E1000B1E008950C944026672F782F8827B85F5B
:104E200039F0B93FCCF3869577956795B395D9F767
:104E30003EF490958095709561957F4F8F4F9F4F71
:104E400008950E94652508F48FEF08950E94652556
:104E5000880B990B089597FB072E16F4009407D042
:104E600077FD09D00E94672707FC05D03EF4909596
:104E700081959F4F0895709561957F4F0895A1E2A8
:104E80001A2EAA1BBB1BFD010DC0AA1FBB1FEE1FC4
:104E9000FF1FA217B307E407F50720F0A21BB30B0F
:104EA000E40BF50B661F771F881F991F1A9469F78B
:104EB00060957095809590959B01AC01BD01CF01E7
:104EC0000895EE0FFF1F0590F491E02D0994AA1BA1
:104ED000BB1B51E107C0AA1FBB1FA617B70710F0E5
:104EE000A61BB70B881F991F5A95A9F78095909517
:104EF000BC01CD010895CF93DF938230910510F46A
:104F000082E090E0E091AD06F091AE0620E030E066
:104F1000C0E0D0E0309711F1408151814817590726
:104F2000C0F04817590761F482819381209719F0E6
:104F30009B838A832BC09093AE068093AD0626C0D8
:104F40002115310519F04217530718F49A01BE01D3
:104F5000DF01EF010280F381E02DDCCF2115310567
:104F600009F1281B390B2430310590F412968D91EC
:104F70009C9113976115710521F0FB019383828346
:104F800004C09093AE068093AD06FD01329644C0F6
:104F9000FD01E20FF31F81939193225031092D936C
:104FA0003C933AC02091AB063091AC06232B41F4E0
:104FB00020911501309116013093AC062093AB0679
:104FC00020911301309114012115310541F42DB7C1
:104FD0003EB74091170150911801241B350BE09109
:104FE000AB06F091AC06E217F307A0F42E1B3F0BC3
:104FF0002817390778F0AC014E5F5F4F241735074B
:1050000048F04E0F5F1F5093AC064093AB06819360
:10501000919302C0E0E0F0E0CF01DF91CF910895DD
:105020000F931F93CF93DF93009709F48CC0FC017B
:105030003297138212820091AD061091AE060115CF
:10504000110581F420813181820F931F2091AB06DD
:105050003091AC062817390779F5F093AC06E09348
:10506000AB0671C0D80140E050E0AE17BF0750F466
:1050700012962D913C911397AD012115310509F13F
:10508000D901F3CF9D01DA013383228360817181DD
:10509000860F971F8217930769F4EC0128813981E5
:1050A000260F371F2E5F3F4F318320838A819B81DC
:1050B00093838283452B29F4F093AE06E093AD06EB
:1050C00042C01396FC93EE931297ED0149915991CA
:1050D0009E01240F351FE217F30771F4808191813F
:1050E000840F951F029611969C938E9382819381D3
:1050F00013969C938E931297E0E0F0E0D8011296FD
:105100008D919C911397009719F0F8018C01F6CFBF
:105110008D919C9198012E5F3F4F820F931F20919C
:10512000AB063091AC062817390769F4309729F49B
:105130001092AE061092AD0602C013821282109336
:10514000AC060093AB06DF91CF911F910F910895AC
:10515000A0E0B0E0EEEAF8E20C944B26EC010097F8
:1051600021F4CB010E947B27B8C0FC01E60FF71F9A
:105170009C0122503109E217F30708F4ACC0D901B1
:105180000D911C91119706171707B0F00530110506
:1051900008F49FC0C80104978617970708F499C0C0
:1051A00002501109061B170B019311936D937C9309
:1051B000CF010E9410288DC05B01A01AB10A4C01DA
:1051C000800E911EA091AD06B091AE0640E050E079
:1051D000E12CF12C109709F44AC0A815B905D1F5B6
:1051E0006D907C901197630182E0C80ED11CCA14A7
:1051F000DB0480F1A3014A195B096A0182E0C80E51
:10520000D11C1296BC9012971396AC91B5E0CB16B8
:10521000D10440F0B282A38351834083D9016D93BE
:105220007C930AC00E5F1F4FC301800F911FF901CD
:1052300091838083EB2DFA2FE114F10431F0D70133
:105240001396FC93EE93129744C0F093AE06E0934E
:10525000AD063FC08D919C9111974817590708F4EE
:10526000AC017D0112960D90BC91A02DB3CF809121
:10527000AB069091AC0688159905E1F446175707DF
:10528000C8F48091130190911401009741F48DB7F7
:105290009EB74091170150911801841B950BE81798
:1052A000F907C8F4F093AC06E093AB06F9017183FB
:1052B00060830FC0CB010E947B277C01009759F0CF
:1052C000A801BE010E947729CE010E941028C701C3
:1052D00004C0CE0102C080E090E0CDB7DEB7EEE0C2
:1052E0000C94672681E090E0F8940C949E29FB01D1
:1052F000DC0102C001900D9241505040D8F7089552
:10530000FB01DC018D91019080190110D9F3990BFB
:105310000895FB01DC0101900D920020E1F7089552
:10532000FB01DC014150504030F08D91019080191B
:1053300019F40020B9F7881B990B089511E0CFEB01
:10534000D1E004C0FE010E9461272196C03CD10734
:06535000C9F7F894FFCF3D
:1053560000E1000000000000011D0190E8FFFFFFD2
:10536600FFFFFF0000AF0680000000000055040E9E
:10537600031C040604DE069F0363726561725371A3
:105386006C0000000000110DA70AA904ED02A40C90
:105396008C0C460CF404570B590C340DD90BA50490
:1053A600EE02746F6D617254656D7048756D000024
:1053B600C18081000000585858585858583130302C
:1053C600000000007F0E160EEA017B051B02F901A4
:1053D6000D020000000031025906AC04B004470279
:1053E600D604B20400000000DB0C160EA904EC0281
:1053F6004D0B350B220B00000000410E160EA904C2
:10540600A804410E410E410E000000009008160E41
:10541600A904A80400000000F80C160EA904A804AC
:10542600470A00000000410E160EA904A804000059
:1054360000002E1400000000410E436F6E65637479
:105446006120656C20004D6F6E69746F7220536524
:1054560072696500437265616E646F206469726586
:1054660063746F72696F203A202F746D702F4454E5
:105476004831312F73656E736F722E6462006D6BE7
:10548600646972002F746D702F44544831310043A3
:105496007265616E646F2073716C69746520636FE9
:1054A6006E20727574613A202F746D702F445448C3
:1054B60031312F73656E736F722E64620073716C77
:1054C6006974653320002F746D702F445448313150
:1054D6002F73656E736F722E646220002744524FDD
:1054E60050205441424C452073656E736F723B27C2
:1054F600004552524F522044524F50004552524F8F
:10550600522044524F500A002743524541544520E9
:105516005441424C452073656E736F72284944208E
:10552600494E5445474552204E4F54204E554C4CFB
:10553600205052494D415259204B4559204155540E
:105546004F494E4352454D454E542C2044415445F7
:10555600204441544554494D45204E4F54204E5504
:105566004C4C2C2054454D50205245414C204E4F1A
:1055760054204E554C4C2C2048554D205245414CFC
:10558600204E4F54204E554C4C293B270045525235
:105596004F5220435245415445004552524F5220E6
:1055A6004352454154450A0053514C697465206382
:1055B600726561646120636F7272656374616D65A3
:1055C6006E74650076616C6F7265730074656D70DC
:1055D600657261747572610068756D6564616400F9
:1055E600204552524F52202053454E534F520020D1
:1055F6004E4F20434F4E45435441444F002C204CC0
:10560600454354555241532044452053454E534F2C
:1056160052204552524F4E4541532C206572726FAF
:10562600723A20000A496E74726F64756369656E1A
:10563600646F206461746F7320656E206C612074E2
:1056460061626C612073656E736F72207369747525
:1056560061646120656E3A202F746D702F44544842
:1056660031312F73656E736F722E64620027494E57
:105676005345525420494E544F2073656E736F72D2
:10568600202844415445202C2054454D50202C20A0
:1056960048554D292056414C5545532028435552CF
:1056A60052454E545F54494D455354414D502C007C
:1056B600202C003B206563686F20243F0020204893
:1056C600554D203D200054454D50203D200020C220
:1056D600BA430025004C4543545552415320444596
:1056E6002053454E534F522045585452454D415331
:1056F6000A004C454354555241532053454E534F8F
:10570600520045585452454D4153002C204D657466
:10571600686F643A20002C204C696E653A20002C94
:105726002044656275673A20000D0A006E616E00BE
:10573600696E66006F766600FE002F62696E2F61E5
:065746007368002D6300F2
:00000001FF
